:100000000C942A000C9434000C9434000C943400AA
:100010000C9434000C9434000C9434000C94340090
:100020000C9434000C9434000C9434000C94340080
:100030000C9434000C9434000C9434000C94340070
:100040000C9434000C9434000C9434000C94340060
:100050000C94340011241FBECFE5D8E0DEBFCDBF25
:100060000E9468000C94A9000C9400009B01AC0154
:1000700088E18AB986E880BD84E0220F331F441FDF
:10008000551F8A95D1F760E072E18AE790E00E94FF
:100090008700215029B908958CB95E9BFECF5E9AE6
:1000A0000895FC0105C08CB95E9BFECF5E9A319627
:1000B00080818823C1F708955F9BFECF8CB108959E
:1000C000FC015F9BFECF8CB181938823D1F708950B
:1000D000CF93DF9360E875E280E090E00E94360005
:1000E000C8ECD0E089E70E944C0080E197E2FE0175
:1000F0003197F1F70197D9F78EE60E944C0080E125
:1001000097E2FE013197F1F70197D9F7EBCFA1E222
:100110001A2EAA1BBB1BFD010DC0AA1FBB1FEE1F81
:10012000FF1FA217B307E407F50720F0A21BB30BCC
:10013000E40BF50B661F771F881F991F1A9469F748
:1001400060957095809590959B01AC01BD01CF01A4
:060150000895F894FFCFB2
:00000001FF
