:100000000C942A000C9434000C9434000C943400AA
:100010000C9434000C9434000C9434000C94340090
:100020000C9434000C9434000C9434000C94340080
:100030000C9434000C9434000C9434000C94340070
:100040000C9434000C9434000C9434000C94340060
:100050000C94340011241FBECFE5D8E0DEBFCDBF25
:100060000E9441000C9469000C94000088E683BF54
:1000700012BE88E087BB089593B7916093BF8CBF91
:100080000895CF93DF930E943600C8ECD0E08EEF46
:1000900090E00E943C0080E197E2FE013197F1F789
:1000A0000197D9F780E890E00E943C0080E197E258
:1000B000FE013197F1F70197D9F784E190E00E94B2
:1000C0003C0080E197E2FE013197F1F70197D9F703
:0600D000DECFF894FFCF23
:00000001FF
