:100000000C942A000C9447000C9447000C94470071
:100010000C9447000C9447000C9447000C94470044
:100020000C9447000C9447000C9447000C94470034
:100030000C9447000C9447000C9447000C94470024
:100040000C9447000C9447000C9447000C94470014
:100050000C94470011241FBECFE5D8E0DEBFCDBF12
:1000600010E0A0E6B0E0ECE7F2E002C005900D92EF
:10007000A437B107D9F710E0A4E7B0E001C01D92A2
:10008000AE37B107E1F70E94CA000C943C010C9412
:100090000000AE9820ED37E0F9013197F1F7AF9A03
:1000A000F9013197F1F788BBC9010197F1F7AF98D2
:1000B000C9010197F1F70895A69AA79A8FEF87BB18
:1000C00082E00E94490088E30E94490081E00E948A
:1000D00049008EE00E9449000895AE9A20ED37E075
:1000E000F9013197F1F7AF9AF9013197F1F788BB30
:1000F000C9010197F1F7AF98C9010197F1F7089588
:10010000CF93DF93EC0102C00E946D008991882398
:10011000D9F7DF91CF91089581E00E9449000895B9
:10012000882329F0813011F060E001C0605C862FE7
:1001300080680E94490008950F931F938A010E94CE
:100140009000C8010E9480001F910F9108950F93A5
:100150001F93CF93DF938B01883090F4880F880F23
:10016000880F805C0E944900C0E0D0E0F801EC0FED
:10017000FD1F80810E946D002196C830D105B1F726
:10018000DF91CF911F910F9108954AE050E00E94B6
:10019000F70008950F931F93DF93CF930F92CDB77E
:1001A000DEB719820E945C000E948C0080E060E053
:1001B00040E650E00E949C0008EC10E089818F5FCF
:1001C000898381E060E00E949000898190E064E78B
:1001D00070E00E94C50084E790E00E94800080E10A
:1001E00097E2F8013197F1F70197D9F7E7CFFB01D3
:1001F0009F01E8944230C4F04532B4F44A3029F407
:1002000097FB1EF4909581959F4F642F77270E944E
:100210002801805D8A330CF0895D8193CB010097C2
:10022000A1F716F45DE251931082C9010C941801F4
:10023000DC01FC01672F71917723E1F7329704C04D
:100240007C916D9370836291AE17BF07C8F30895D8
:10025000AA1BBB1B51E107C0AA1FBB1FA617B707EC
:1002600010F0A61BB70B881F991F5A95A9F7809508
:0C0270009095BC01CD010895F894FFCFDB
:10027C004F4F4F53414D41414141000A1F1F1F1F1A
:04028C000E0400005C
:00000001FF
