:100000000C942A000C943F000C943F000C943F0089
:100010000C943F000C943F000C943F000C943F0064
:100020000C943F000C943F000C943F000C943F0054
:100030000C943F000C943F000C943F000C943F0044
:100040000C943F000C943F000C943F000C943F0034
:100050000C943F0011241FBECFE5D8E0DEBFCDBF1A
:1000600010E0A0E6B0E0ECE6F1E002C005900D92F1
:10007000A03BB107D9F70E9473000C94B4000C9414
:1000800000009B01AC0188E18AB986E880BD84E06C
:10009000220F331F441F551F8A95D1F760E072E18C
:1000A0008AE790E00E949200215029B908958CB906
:1000B0005E9BFECF5E9A0895FC0105C08CB95E9BE5
:1000C000FECF5E9A319680818823C1F708955F9BA9
:1000D000FECF8CB10895FC015F9BFECF8CB1819364
:1000E0008823D1F7089560E875E280E090E00E94EF
:1000F000410080E690E00E945C0080E281BB0E94AB
:1001000067008E3631F0893741F4959A81E890E0A6
:1001100006C0959880E990E002C080EA90E00E94D5
:100120005C00EDCFA1E21A2EAA1BBB1BFD010DC086
:10013000AA1FBB1FEE1FFF1FA217B307E407F50797
:1001400020F0A21BB30BE40BF50B661F771F881F73
:10015000991F1A9469F760957095809590959B0109
:0C016000AC01BD01CF010895F894FFCF61
:10016C005072657373207920666F72204F4E2C206D
:10017C006E20666F72206C6564206F666620200DA1
:10018C00004C4544206973204F4E203A44200D000A
:10019C004C4544206973204F4646203A28200D00D8
:1001AC00496E76616C69642063686172200D000091
:00000001FF
