:100000000C942A000C9447000C9447000C94470071
:100010000C9447000C9447000C9447000C94600526
:100020000C9447000C9447000C9447000C94470034
:100030000C9447000C9447000C9447000C94470024
:100040000C9447000C9447000C9447000C94470014
:100050000C94470011241FBECFE5D8E0DEBFCDBF12
:1000600011E0A0E6B0E0E2EFFEE002C005900D92E4
:10007000A837B107D9F711E0A8E7B1E001C01D9298
:10008000AE38B107E1F70E9429060C9477070C946B
:100090000000A0E2B0E0EFE4F0E00C94FB0669831E
:1000A0007A838B839C832D833E834F835887CE0135
:1000B0000196BE01675F7F4F0E94E003CE01059667
:1000C000BE016F5E7F4F0E94E0039985923088F0F9
:1000D00089898230C8F0943019F4823051F404C018
:1000E000843029F4923081F48FE690E0C6C09230DB
:1000F00049F420E09A858A89981321E02A87CE0165
:100100000996BBC0823049F420E09A858A89981309
:1001100021E02A8BCE014196B0C02D843E844F84CD
:1001200058886D887E888F88988CEE24FF248701FC
:10013000AA24BB24650140E050E060E070E0E0E00C
:10014000F0E0C10181709070892BE9F0E60CF71C9A
:10015000081D191D9A01AB012A0D3B1D4C1D5D1D8B
:1001600080E090E0A0E0B0E0E614F704080519058F
:1001700020F481E090E0A0E0B0E0BA01A901480FCE
:10018000591F6A1F7B1FAA0CBB1CCC1CDD1C97FED1
:1001900008C081E090E0A0E0B0E0A82AB92ACA2A0D
:1001A000DB2A3196E032F10549F0660C771C881C99
:1001B000991C5694479437942794C3CFFA85EA89BB
:1001C0002B893C898B859C85280F391F2E5F3F4FDB
:1001D00017C0CA0181709070892B61F01695079540
:1001E000F794E79480E090E0A0E0B0E8E82AF92AEC
:1001F0000A2B1B2B76956795579547952F5F3F4F99
:1002000077FDE7CF0CC0440F551F661F771F17FD02
:100210004160EE0CFF1C001F111F21503040403088
:1002200090E0590790E0690790E4790760F32B8F1D
:100230003C8FDB01CA018F779070A070B070803462
:100240009105A105B10561F447FD0AC0E114F1046F
:100250000105110529F0405C5F4F6F4F7F4F4078DB
:100260001A8EFE1711F081E08A8F4D8F5E8F6F8F8F
:1002700078A383E0898FCE0149960E940B03A09654
:10028000E2E10C941707A8E1B0E0E9E4F1E00C9496
:10029000030769837A838B839C832D833E834F83FB
:1002A0005887B9E0EB2EF12CEC0EFD1ECE01019625
:1002B000B7010E94E0038E010F5E1F4FCE0105962D
:1002C000B8010E94E0032985223008F47EC03989F4
:1002D000323010F4B8017CC08A859A8989278A87D0
:1002E000243011F0223031F4231709F06EC06FE68C
:1002F00070E06EC0343039F41D861E861F86188A61
:100300001C861B8604C0323021F484E08987B70143
:100310005FC02B853C858B899C89281B390B3C87CA
:100320002B87ED84FE840F851889AD88BE88CF8821
:10033000D88CEA14FB040C051D0540F4EE0CFF1CE0
:10034000001F111F215030403C872B8720E030E0F8
:1003500040E050E080E090E0A0E0B0E460E070E0D9
:10036000EA14FB040C051D0540F0282B392B4A2B01
:100370005B2BEA18FB080C091D09B695A795979504
:100380008795EE0CFF1C001F111F6F5F7F4F6F31B1
:10039000710531F7DA01C9018F779070A070B070E4
:1003A00080349105A105B10561F427FD0AC0E1146F
:1003B000F1040105110529F0205C3F4F4F4F5F4FBD
:1003C00020782D873E874F87588BBE01675F7F4F10
:1003D000CB010E940B036896EAE00C941F07ACE087
:1003E000B0E0E5EFF1E00C940B0769837A838B832F
:1003F0009C83CE010196BE016B5F7F4F0E94E0039C
:100400008D81823061F1823050F1843021F48E810F
:10041000882351F12EC02F81388537FD20C06E8191
:100420002F3131051CF06623F9F023C08EE190E0F6
:10043000821B930B29853A854B855C8504C05695B4
:100440004795379527958A95D2F76623B1F0509551
:100450004095309521953F4F4F4F5F4F0EC020E0A4
:1004600030E040E050E009C02FEF3FEF4FEF5FE793
:1004700004C020E030E040E050E8B901CA012C9609
:10048000E2E00C942707A8E0B0E0E9E4F2E00C9485
:1004900003077B018C01611571058105910519F434
:1004A00082E0898360C083E089838EE1C82ED12CED
:1004B000DC82CB82ED82FE820F831887C801B701F0
:1004C0000E94BC02FC013197F7FF3BC02227332773
:1004D0002E1B3F0B57016801022E04C0D694C7940F
:1004E000B794A7940A94D2F740E050E060E070E03F
:1004F00081E090E0A0E0B0E004C0880F991FAA1F3F
:10050000BB1F2A95D2F70197A109B1098E219F211E
:10051000A023B1230097A105B10521F041E050E0EF
:1005200060E070E04A295B296C297D294D835E8358
:100530006F8378878EE190E08E1B9F0B9C838B836B
:1005400012C0309781F00E2E04C0EE0CFF1C001F6D
:10055000111F0A94D2F7ED82FE820F831887CE1AFC
:10056000DF0ADC82CB821A82CE0101960E940B0345
:100570002896EAE00C941F07EF92FF920F931F93C7
:100580007B018C0180E0E81680E0F80681E0080736
:1005900080E0180788F48FEFE816F10401051105D3
:1005A00031F028F088E090E0A0E0B0E017C080E0F3
:1005B00090E0A0E0B0E012C080E0E81680E0F8062D
:1005C00080E0080781E0180728F088E190E0A0E0CB
:1005D000B0E004C080E190E0A0E0B0E020E230E0D4
:1005E00040E050E0281B390B4A0B5B0B04C016950A
:1005F0000795F794E7948A95D2F7F701E958FF4FEA
:100600008081281B310941095109C9011F910F91AE
:10061000FF90EF900895DF92EF92FF920F931F9358
:10062000FC01E480F58006811781D18080818230D1
:1006300048F480E090E0A0E1B0E0E82AF92A0A2B33
:100640001B2BA5C0843009F49FC0823021F4EE2416
:10065000FF24870105C0E114F1040105110519F417
:10066000E0E0F0E096C0628173819FEF6238790725
:100670000CF05BC022E83FEF261B370B2A31310517
:100680002CF020E030E040E050E02AC0B801A701A3
:10069000022E04C076956795579547950A94D2F730
:1006A00081E090E0A0E0B0E004C0880F991FAA1F8D
:1006B000BB1F2A95D2F70197A109B1098E219F216D
:1006C000A023B1230097A105B10521F081E090E0BE
:1006D000A0E0B0E09A01AB01282B392B4A2B5B2B11
:1006E000DA01C9018F779070A070B07080349105E5
:1006F000A105B10539F427FF09C0205C3F4F4F4FDA
:100700005F4F04C0215C3F4F4F4F5F4FE0E0F0E090
:100710002030A0E03A07A0E04A07A0E45A0710F012
:10072000E1E0F0E079018A0127C06038710564F5E5
:10073000FB01E158FF4FD801C7018F779070A0707F
:10074000B07080349105A105B10539F4E7FE0DC004
:1007500080E490E0A0E0B0E004C08FE390E0A0E08F
:10076000B0E0E80EF91E0A1F1B1F17FF05C0169503
:100770000795F794E794319687E016950795F794D7
:10078000E7948A95D1F705C0EE24FF248701EFEFA7
:10079000F0E06E2F679566276795902F9F77D79427
:1007A000DD24D7948E2F8695492F462B582F5D290F
:1007B000B701CA011F910F91FF90EF90DF9008954C
:1007C000FC01DB01408151812281622F6F7770E053
:1007D000221F2227221F9381892F880F822B282FE7
:1007E00030E0991F9927991F11969C931197211515
:1007F0003105A9F5411551056105710511F482E036
:1008000037C082E89FEF13969C938E9312979A01BC
:10081000AB0167E0220F331F441F551F6A95D1F7C4
:1008200083E08C930DC0220F331F441F551F129677
:100830008D919C911397019713969C938E93129789
:10084000203080E0380780E0480780E4580758F3FC
:1008500014962D933D934D935C93179708952F3FD6
:10086000310579F4411551056105710519F484E0EC
:100870008C93089564FF03C081E08C9312C01C9296
:1008800010C02F57304013963C932E93129783E05D
:100890008C9387E0440F551F661F771F8A95D1F709
:1008A000706414964D935D936D937C9317970895A0
:1008B00090937D0180937C01089590937F018093B4
:1008C0007E01089590938101809380010895909313
:1008D0008301809382010895909385018093840120
:1008E00008959093870180938601089580917801FF
:1008F00090917901A0917A01B0917B010196A11D9F
:10090000B11D8093780190937901A0937A01B093FF
:100910007B018091780190917901A0917A01B09149
:100920007B0181709070892B29F4E0917C01F0911A
:100930007D010995609178017091790180917A012A
:1009400090917B0125E030E040E050E00E94D90624
:10095000611571058105910529F4E0917E01F09101
:100960007F010995609178017091790180917A01F8
:1009700090917B012AE030E040E050E00E94D906EF
:10098000611571058105910529F4E0918001F091CF
:1009900081010995609178017091790180917A01C6
:1009A00090917B0124E630E040E050E00E94D906BF
:1009B000611571058105910529F4E0918201F0919D
:1009C00083010995609178017091790180917A0194
:1009D00090917B0124EF31E040E050E00E94D90685
:1009E000611571058105910529F4E0918401F0916B
:1009F00085010995609178017091790180917A0162
:100A000090917B0128EE33E040E050E00E94D9064F
:100A1000611571058105910529F4E0918601F09138
:100A20008701099508950E944A0508950E943B0593
:100A300086E794E00E945B05089580E487B986E824
:100A400086B9089597B1907E97B997B18770892B31
:100A500087B9369A3699FECF24B135B1C9010895C8
:100A600088E683BF12BE88E087BB089593B7916084
:100A700093BF8CBF08958CE08FBD88E08EBD1BBCFA
:100A80001ABC19BC18BC17BC16BC80E189BF80E831
:100A90008FBF08958DE790E09BBD8ABD8BE08EBD32
:100AA000089588E08EBD08951DBC1CBC08952CB52A
:100AB0003DB5C901089590938901809388010895F7
:100AC0001F920F920FB60F9211242F933F934F93C3
:100AD0005F936F937F938F939F93AF93BF93EF93A6
:100AE000FF93E0918801F0918901309709F0099511
:100AF000FF91EF91BF91AF919F918F917F916F91F6
:100B00005F914F913F912F910F900FBE0F901F90CB
:100B1000189513BE89B7816089BF8FB780688FBF72
:100B2000089583B7887F83BF83B7826083BF0895AA
:100B3000AE9820ED37E0F9013197F1F7AF9AF9015E
:100B40003197F1F788BBC9010197F1F7AF98C90157
:100B50000197F1F70895A69AA79A8FEF87BB82E0D5
:100B60000E94980588E30E94980581E00E949805FC
:100B70008EE00E9498050895AE9A20ED37E0F901C5
:100B80003197F1F7AF9AF9013197F1F788BBC901B5
:100B90000197F1F7AF98C9010197F1F70895CF9345
:100BA000DF93EC0102C00E94BC0589918823D9F72C
:100BB000DF91CF91089581E00E94980508958823E0
:100BC00029F0813011F060E001C0605C862F806800
:100BD0000E94980508950F931F938A010E94DF05D4
:100BE000C8010E94CF051F910F9108950F931F9385
:100BF000CF93DF938B01883090F4880F880F880F94
:100C0000805C0E949805C0E0D0E0F801EC0FFD1F69
:100C100080810E94BC052196C830D105B1F7DF91D3
:100C2000CF911F910F9108954AE050E00E94320742
:100C3000089508958BB394E089278BBB08958BB3F7
:100C400092E089278BBB08958BB391E089278BBBFA
:100C500008958AB387608ABB0E941D050E94AB0578
:100C60000E94DB050E94160589E196E00E94580467
:100C700085E896E00E945D048AE196E00E946204A5
:100C80008FE196E00E9467048FE496E00E946C0476
:100C900084E296E00E9471040E941305FFCF0F9337
:100CA0001F93DF93CF93CDB7DEB72A970FB6F89493
:100CB000DEBF0FBECDBF80E060E040E650E00E94A6
:100CC000EB0560918A0170918B0180918C0190916C
:100CD0008D010E94EF01DC01CB018E010F5F1F4FE0
:100CE000B8010E941406C8010E94CF058BE690E06F
:100CF0000E94CF052A960FB6F894DEBF0FBECDBF77
:100D0000CF91DF911F910F91089586E00E942205F7
:100D1000A0E0B0E0BC01CD010E94430260938A01D3
:100D200070938B0180938C0190938D0160918A0167
:100D300070918B0180918C0190918D0120E030E0C9
:100D400040EA50E40E94490060938A0170938B014D
:100D500080938C0190938D0160918A0170918B0139
:100D600080918C0190918D0120E030EC4FE754E4AC
:100D70000E94430160938A0170938B0180938C01E0
:100D800090938D0160918A0170918B0180918C010B
:100D900090918D0120E030E048EC52E40E9449003F
:100DA00060938A0170938B0180938C0190938D01E5
:100DB0000895A1E21A2EAA1BBB1BFD010DC0AA1F9C
:100DC000BB1FEE1FFF1FA217B307E407F50720F0B4
:100DD000A21BB30BE40BF50B661F771F881F991F2F
:100DE0001A9469F760957095809590959B01AC0178
:100DF000BD01CF0108952F923F924F925F926F9263
:100E00007F928F929F92AF92BF92CF92DF92EF929A
:100E1000FF920F931F93CF93DF93CDB7DEB7CA1B1B
:100E2000DB0B0FB6F894DEBF0FBECDBF09942A8846
:100E3000398848885F846E847D848C849B84AA84EE
:100E4000B984C884DF80EE80FD800C811B81AA817B
:100E5000B981CE0FD11D0FB6F894DEBF0FBECDBF46
:100E6000ED010895FB019F01E8944230C4F0453242
:100E7000B4F44A3029F497FB1EF4909581959F4F66
:100E8000642F77270E946307805D8A330CF0895DA9
:100E90008193CB010097A1F716F45DE25193108284
:100EA000C9010C945307DC01FC01672F7191772372
:100EB000E1F7329704C07C916D9370836291AE1715
:100EC000BF07C8F30895AA1BBB1B51E107C0AA1FA7
:100ED000BB1FA617B70710F0A61BB70B881F991FDB
:100EE0005A95A9F780959095BC01CD010895F89485
:020EF000FFCF32
:100EF20054656D70206973203A2000202A43000057
:100F020000000000000000000102020303030304CA
:100F12000404040404040405050505050505050586
:100F22000505050505050506060606060606060666
:100F3200060606060606060606060606060606064F
:100F42000606060606060607070707070707070736
:100F5200070707070707070707070707070707071F
:100F6200070707070707070707070707070707070F
:100F720007070707070707070707070707070707FF
:100F820007070707070707080808080808080808E6
:100F920008080808080808080808080808080808CF
:100FA20008080808080808080808080808080808BF
:100FB20008080808080808080808080808080808AF
:100FC200080808080808080808080808080808089F
:100FD200080808080808080808080808080808088F
:100FE200080808080808080808080808080808087F
:100FF200080808080808080808080808080808086F
:081002000808080808080800AE
:00000001FF
