:100000000C942A000C943F000C943F000C943F0089
:100010000C943F000C943F000C943F000C943F0064
:100020000C943F000C943F000C943F000C943F0054
:100030000C943F000C943F000C943F000C943F0044
:100040000C943F000C943F000C943F000C943F0034
:100050000C943F0011241FBECFE5D8E0DEBFCDBF1A
:1000600010E0A0E6B0E0E8EAF5E002C005900D92ED
:10007000AC36B107D9F70E9405020C94D2020C9459
:10008000000090E290B994E496BF90E0880F991F29
:1000900082B9089584EE86BF06B607FEFDCF81B112
:1000A00091B1883011F09031D1F7089584ED86BF79
:1000B0000895880F816083B984EC86BF06B607FE79
:1000C000FDCF81B191B1803411F09834D1F708950A
:1000D00090E0880F991F83B984EC86BF06B607FEAF
:1000E000FDCF81B191B1883111F09032D1F70895EF
:1000F00083B984EC86BF06B607FEFDCF51B161B16E
:1001000041B181B120E030E0803C11F421E030E0E9
:1001100080E090E0483B11F481E090E0282B392BFF
:1001200080E0583209F481E090E0603309F491E016
:10013000892B90E0282B392B232B01F3089594EC85
:1001400006B607FEFDCF81B1803519F081B1803848
:1001500021F484EC86BF83B1089596BFF1CF94E873
:1001600006B607FEFDCF81B1883519F081B1883818
:1001700021F484E886BF83B1089596BFF1CF0F9331
:100180001F93182F062F0E944A00812F0E9468009B
:10019000802F0E94780084ED86BF1F910F910895F3
:1001A000AE9820ED37E0F9013197F1F7AF9AF901F8
:1001B0003197F1F788BBC9010197F1F7AF98C901F1
:1001C0000197F1F70895A69AA79A8FEF87BB82E06F
:1001D0000E94D00088E30E94D00081E00E94D000FD
:1001E0008EE00E94D0000895AE9A20ED37E0F9012C
:1001F0003197F1F7AF9AF9013197F1F788BBC9014F
:100200000197F1F7AF98C9010197F1F70895CF93DE
:10021000DF93EC0102C00E94F40089918823D9F792
:10022000DF91CF91089581E00E94D0000895882346
:1002300029F0813011F060E001C0605C862F806899
:100240000E94D00008950F931F938A010E94170106
:10025000C8010E9407011F910F9108950F931F93EA
:10026000CF93DF938B01883090F4880F880F880F2D
:10027000805C0E94D000C0E0D0E0F801EC0FFD1FD0
:1002800080810E94F4002196C830D105B1F7DF913A
:10029000CF911F910F9108954AE050E00E948D0286
:1002A0000895282F6AE00E94810296E0899FC0018C
:1002B0001124820F08950F931F938C010E944A000E
:1002C00088E60E94680080E00E947800F801808142
:1002D0000E9451010E947800F80181810E94510121
:1002E0000E947800F80182810E9451018F7B0E9458
:1002F0007800F80183810E9451010E947800F80182
:1003000084810E9451010E947800F80185810E9439
:1003100051010E947800F80186810E9451010E94DB
:100320007800F80187810E9451010E9478000E94A4
:1003300056001F910F910895EF92FF920F931F9314
:10034000DF93CF93CDB7DEB760970FB6F894DEBFDB
:100350000FBECDBF0E944A0088E60E94680080E080
:100360000E9478000E9456000E944A0088E60E947F
:1003700059000E949F00082F0E949F00F82E0E94A3
:100380009F00182F0E94AF00E82E0E9456001F7396
:10039000802F82958F702AEF3FEF829F802D11244E
:1003A000800F89838F2D82958F70829F802D1124DD
:1003B0008F0D8A83812F82958F70829F802D1124CB
:1003C000810F8B83EC82DE011996FE01319688E065
:1003D00001900D928150E1F729853A854B855C8526
:1003E0006D857E858F85988960960FB6F894DEBFFF
:1003F0000FBECDBFCF91DF911F910F91FF90EF9076
:10040000089580E10E94410008956F927F928F923B
:100410009F92AF92BF92CF92DF92FF920F931F9362
:10042000DF93CF93CDB7DEB76A970FB6F894DEBFF0
:100430000FBECDBF8D9A959882E08C8398E19D8305
:1004400085E08E839F8318860E9401020E94E3004C
:100450000E94130180E060E040E650E00E9423012A
:100460003E010894611C711C23E1822E912C8C0E9C
:100470009D1E99E0C92ED12CCC0EDD1E88ECA82E35
:10048000B12C0E949C012B8B3C8B4D8B5E8B6F8B18
:10049000788F898F9A8FD301F40188E001900D92B3
:1004A0008150E1F71B810A81F98081E060E00E94C0
:1004B0001701812F90E0B6010E944C01C6010E94F5
:1004C000070187E690E00E940701802F90E0B601C7
:1004D0000E944C01C6010E94070187E690E00E943D
:1004E00007018F2D90E0B6010E944C01C6010E94C9
:1004F000070184EF91E0F5013197F1F70197D9F702
:10050000C0CF991B79E004C0991F961708F0961B7D
:10051000881F7A95C9F780950895FB019F01E8949B
:100520004230C4F04532B4F44A3029F497FB1EF44B
:10053000909581959F4F642F77270E94BE02805D22
:100540008A330CF0895D8193CB010097A1F716F4F3
:100550005DE251931082C9010C94AE02DC01FC01F2
:10056000672F71917723E1F7329704C07C916D93E7
:1005700070836291AE17BF07C8F30895AA1BBB1B17
:1005800051E107C0AA1FBB1FA617B70710F0A61B93
:10059000B70B881F991F5A95A9F780959095BC01B4
:0805A000CD010895F894FFCF8E
:0C05A80054696D653A2000203A200000E4
:00000001FF
