:100000000C942A000C9434000C9434000C943400AA
:100010000C9434000C9434000C9434000C94340090
:100020000C9434000C9434000C9434000C94340080
:100030000C9434000C9434000C9434000C94340070
:100040000C9434000C9434000C9434000C94340060
:100050000C94340011241FBECFE5D8E0DEBFCDBF25
:100060000E94C5000C9402010C94000090E290B92B
:1000700094E496BF90E0880F991F82B9089584EEAA
:1000800086BF06B607FEFDCF81B191B1883011F071
:100090009031D1F7089584ED86BF0895880F81606F
:1000A00083B984EC86BF06B607FEFDCF81B191B15E
:1000B000803411F09834D1F7089590E0880F991F9B
:1000C00083B984EC86BF06B607FEFDCF81B191B13E
:1000D000883111F09032D1F7089583B984EC86BF4E
:1000E00006B607FEFDCF51B161B141B181B120E04B
:1000F00030E0803C11F421E030E080E090E0483BCB
:1001000011F481E090E0282B392B80E0583209F47B
:1001100081E090E0603309F491E0892B90E0282B96
:10012000392B232B01F3089594EC06B607FEFDCF7F
:1001300081B1803519F081B1803821F484EC86BF1B
:1001400083B1089596BFF1CF94E806B607FEFDCFC0
:1001500081B1883519F081B1883821F484E886BFEF
:1001600083B1089596BFF1CF0F931F93182F062FD9
:100170000E943F00812F0E945D00802F0E946D0031
:1001800084ED86BF1F910F9108950F931F93CF9316
:10019000DF9380EC8ABB8FEF81BB82E00E94360048
:1001A00000E41CE9C8ECD0E00E949400382FDE9AED
:1001B000833310F0DF9A01C0DF98832F6AE00E943A
:1001C000F600292F832F0E94F60022BB9498959A5F
:1001D000F8013197F1F782BB949A959884EF91E0FA
:1001E000FE013197F1F70197D9F7DECF991B79E03E
:1001F00004C0991F961708F0961B881F7A95C9F7B7
:0802000080950895F894FFCFEA
:00000001FF
