:100000000C942A000C943F000C943F000C943F0089
:100010000C943F000C943F000C943F000C943F0064
:100020000C943F000C943F000C943F000C943F0054
:100030000C943F000C943F000C943F000C943F0044
:100040000C943F000C943F000C943F000C943F0034
:100050000C943F0011241FBECFE5D8E0DEBFCDBF1A
:1000600011E0A0E6B0E0E6EFF9E002C005900D92E5
:10007000A836B107D9F70E9498040C94F9040C949F
:100080000000A0E2B0E0E7E4F0E00C94C204698371
:100090007A838B839C832D833E834F835887CE0145
:1000A0000196BE01675F7F4F0E94B403CE010596A3
:1000B000BE016F5E7F4F0E94B4039985923088F035
:1000C00089898230C8F0943019F4823051F404C028
:1000D000843029F4923081F480E690E0C6C09230FA
:1000E00049F420E09A858A89981321E02A87CE0175
:1000F0000996BBC0823049F420E09A858A8998131A
:1001000021E02A8BCE014196B0C02D843E844F84DD
:1001100058886D887E888F88988CEE24FF2487010C
:10012000AA24BB24650140E050E060E070E0E0E01C
:10013000F0E0C10181709070892BE9F0E60CF71CAA
:10014000081D191D9A01AB012A0D3B1D4C1D5D1D9B
:1001500080E090E0A0E0B0E0E614F704080519059F
:1001600020F481E090E0A0E0B0E0BA01A901480FDE
:10017000591F6A1F7B1FAA0CBB1CCC1CDD1C97FEE1
:1001800008C081E090E0A0E0B0E0A82AB92ACA2A1D
:10019000DB2A3196E032F10549F0660C771C881CA9
:1001A000991C5694479437942794C3CFFA85EA89CB
:1001B0002B893C898B859C85280F391F2E5F3F4FEB
:1001C00017C0CA0181709070892B61F01695079550
:1001D000F794E79480E090E0A0E0B0E8E82AF92AFC
:1001E0000A2B1B2B76956795579547952F5F3F4FA9
:1001F00077FDE7CF0CC0440F551F661F771F17FD13
:100200004160EE0CFF1C001F111F21503040403098
:1002100090E0590790E0690790E4790760F32B8F2D
:100220003C8FDB01CA018F779070A070B070803472
:100230009105A105B10561F447FD0AC0E114F1047F
:100240000105110529F0405C5F4F6F4F7F4F4078EB
:100250001A8EFE1711F081E08A8F4D8F5E8F6F8F9F
:1002600078A383E0898FCE0149960E94DF02A09691
:10027000E2E10C94DE04A8E1B0E0E1E4F1E00C94EA
:10028000CA0469837A838B839C832D833E834F8347
:100290005887B9E0EB2EF12CEC0EFD1ECE01019635
:1002A000B7010E94B4038E010F5E1F4FCE01059669
:1002B000B8010E94B4032985223008F47EC0398930
:1002C000323010F4B8017CC08A859A8989278A87E0
:1002D000243011F0223031F4231709F06EC060E6AB
:1002E00070E06EC0343039F41D861E861F86188A71
:1002F0001C861B8604C0323021F484E08987B70154
:100300005FC02B853C858B899C89281B390B3C87DA
:100310002B87ED84FE840F851889AD88BE88CF8831
:10032000D88CEA14FB040C051D0540F4EE0CFF1CF0
:10033000001F111F215030403C872B8720E030E008
:1003400040E050E080E090E0A0E0B0E460E070E0E9
:10035000EA14FB040C051D0540F0282B392B4A2B11
:100360005B2BEA18FB080C091D09B695A795979514
:100370008795EE0CFF1C001F111F6F5F7F4F6F31C1
:10038000710531F7DA01C9018F779070A070B070F4
:1003900080349105A105B10561F427FD0AC0E1147F
:1003A000F1040105110529F0205C3F4F4F4F5F4FCD
:1003B00020782D873E874F87588BBE01675F7F4F20
:1003C000CB010E94DF026896EAE00C94E604A8E103
:1003D000B0E0EDEEF1E00C94CE0469837A838B8378
:1003E0009C832D833E834F83588789E0E82EF12C30
:1003F000EC0EFD1ECE010196B7010E94B4038E01E2
:100400000F5E1F4FCE010596B8010E94B403898587
:10041000823040F08989823028F0C701B8010E94FB
:100420002C0401C08FEF6896E6E00C94EA04A8E083
:10043000B0E0EDE1F2E00C94CA047B018C0161159F
:1004400071058105910519F482E0898360C083E01C
:1004500089838EE1C82ED12CDC82CB82ED82FE8294
:100460000F831887C801B7010E949002FC013197E1
:10047000F7FF3BC0222733272E1B3F0B5701680194
:10048000022E04C0D694C794B794A7940A94D2F7C6
:1004900040E050E060E070E081E090E0A0E0B0E09B
:1004A00004C0880F991FAA1FBB1F2A95D2F7019776
:1004B000A109B1098E219F21A023B1230097A10595
:1004C000B10521F041E050E060E070E04A295B298D
:1004D0006C297D294D835E836F8378878EE190E060
:1004E0008E1B9F0B9C838B8312C0309781F00E2E46
:1004F00004C0EE0CFF1C001F111F0A94D2F7ED82FE
:10050000FE820F831887CE1ADF0ADC82CB821A8222
:10051000CE0101960E94DF022896EAE00C94E604E0
:10052000EF92FF920F931F937B018C0180E0E816FE
:1005300080E0F80681E0080780E0180788F48FEF74
:10054000E816F1040105110531F028F088E090E08B
:10055000A0E0B0E017C080E090E0A0E0B0E012C002
:1005600080E0E81680E0F80680E0080781E01807E0
:1005700028F088E190E0A0E0B0E004C080E190E0E5
:10058000A0E0B0E020E230E040E050E0281B390B72
:100590004A0B5B0B04C016950795F794E7948A9570
:1005A000D2F7F701E859FF4F8081281B3109410933
:1005B0005109C9011F910F91FF90EF900895DF92AB
:1005C000EF92FF920F931F93FC01E480F580068168
:1005D0001781D1808081823048F480E090E0A0E1F2
:1005E000B0E0E82AF92A0A2B1B2BA5C0843009F4B5
:1005F0009FC0823021F4EE24FF24870105C0E1145E
:10060000F1040105110519F4E0E0F0E096C0628103
:1006100073819FEF623879070CF05BC022E83FEFEF
:10062000261B370B2A3131052CF020E030E040E06A
:1006300050E02AC0B801A701022E04C07695679544
:10064000579547950A94D2F781E090E0A0E0B0E09A
:1006500004C0880F991FAA1FBB1F2A95D2F70197C4
:10066000A109B1098E219F21A023B1230097A105E3
:10067000B10521F081E090E0A0E0B0E09A01AB018B
:10068000282B392B4A2B5B2BDA01C9018F7790700D
:10069000A070B07080349105A105B10539F427FF31
:1006A00009C0205C3F4F4F4F5F4F04C0215C3F4F5C
:1006B0004F4F5F4FE0E0F0E02030A0E03A07A0E0CD
:1006C0004A07A0E45A0710F0E1E0F0E079018A015E
:1006D00027C06038710564F5FB01E158FF4FD80170
:1006E000C7018F779070A070B07080349105A1051C
:1006F000B10539F4E7FE0DC080E490E0A0E0B0E081
:1007000004C08FE390E0A0E0B0E0E80EF91E0A1FFD
:100710001B1F17FF05C016950795F794E7943196B0
:1007200087E016950795F794E7948A95D1F705C069
:10073000EE24FF248701EFEFF0E06E2F6795662728
:100740006795902F9F77D794DD24D7948E2F869529
:10075000492F462B582F5D29B701CA011F910F91D0
:10076000FF90EF90DF900895FC01DB014081518103
:100770002281622F6F7770E0221F2227221F938130
:10078000892F880F822B282F30E0991F9927991FD6
:1007900011969C93119721153105A9F54115510525
:1007A0006105710511F482E037C082E89FEF13966E
:1007B0009C938E9312979A01AB0167E0220F331F2F
:1007C000441F551F6A95D1F783E08C930DC0220F0B
:1007D000331F441F551F12968D919C9113970197BB
:1007E00013969C938E931297203080E0380780E018
:1007F000480780E4580758F314962D933D934D9382
:100800005C93179708952F3F310579F441155105F1
:100810006105710519F484E08C93089564FF03C0A9
:1008200081E08C9312C01C9210C02F573040139659
:100830003C932E93129783E08C9387E0440F551FCF
:10084000661F771F8A95D1F7706414964D935D9358
:100850006D937C93179708951F93DC01FB019C9186
:10086000923008F447C08081823008F443C094304D
:1008700051F411961C91843099F58181682F70E0B4
:10088000611B71093FC0843021F0923031F4823015
:10089000B9F18181882389F12DC011961C9111979E
:1008A0008230F1F081811817D9F412962D913C9184
:1008B0001397828193818217930794F02817390741
:1008C000BCF014968D919D910D90BC91A02D24812A
:1008D000358146815781281739074A075B0718F485
:1008E000112341F00AC082179307A407B50740F40B
:1008F000112319F061E070E005C06FEF7FEF02C0D7
:1009000060E070E0CB011F91089580E487B986E82C
:1009100086B9089597B1907E97B997B18770892B62
:1009200087B9369A3699FECF24B135B1C9010895F9
:100930000E948504A59A86E00E948A04A0E0B0E0A7
:10094000BC01CD010E94170220E030E040EA50E4F3
:100950000E94410020E030EC4FE754E40E943B014C
:1009600020E030E048EC52E40E94410020E030E01A
:1009700040EF51E40E94E701181614F4AD9ADBCF62
:10098000AD98D9CF2F923F924F925F926F927F9204
:100990008F929F92AF92BF92CF92DF92EF92FF928F
:1009A0000F931F93CF93DF93CDB7DEB7CA1BDB0B3B
:1009B0000FB6F894DEBF0FBECDBF09942A883988E0
:1009C00048885F846E847D848C849B84AA84B984E7
:1009D000C884DF80EE80FD800C811B81AA81B981F3
:1009E000CE0FD11D0FB6F894DEBF0FBECDBFED0107
:0609F0000895F894FFCF0A
:1009F60000000000000000000001020203030303E0
:100A06000404040404040404050505050505050598
:100A16000505050505050505060606060606060678
:100A26000606060606060606060606060606060660
:100A36000606060606060606070707070707070748
:100A46000707070707070707070707070707070730
:100A56000707070707070707070707070707070720
:100A66000707070707070707070707070707070710
:100A760007070707070707070808080808080808F8
:100A860008080808080808080808080808080808E0
:100A960008080808080808080808080808080808D0
:100AA60008080808080808080808080808080808C0
:100AB60008080808080808080808080808080808B0
:100AC60008080808080808080808080808080808A0
:100AD6000808080808080808080808080808080890
:100AE6000808080808080808080808080808080880
:080AF6000808080808080808B8
:00000001FF
