:100000000C942A000C9434000C9434000C943400AA
:100010000C9434000C9434000C9434000C94340090
:100020000C9434000C9434000C9434000C94340080
:100030000C9434000C9434000C9434000C94340070
:100040000C9434000C9434000C9434000C94340060
:100050000C94340011241FBECFE5D8E0DEBFCDBF25
:100060000E9459000C946A000C94000080E48DB941
:1000700008958FB9779BFECF08958FB9779BFECFF8
:100080008FB10895FC0105C08FB9779BFECF8FB16A
:10009000319680818823C1F70895779BFECF8FB179
:1000A0000895FC01779BFECF8FB181938823D1F710
:1000B0000895BE9A87B38F7487BB889A0E943600D2
:1000C0000E944D00893711F4909AFACF8E36C1F70D
:0800D0009098F6CFF894FFCFE1
:00000001FF
