:100000000C942A000C9434000C9434000C943400AA
:100010000C9434000C9434000C9434000C94340090
:100020000C9434000C9434000C9434000C94340080
:100030000C9434000C9434000C9434000C94340070
:100040000C9434000C9434000C9434000C94340060
:100050000C94340011241FBECFE5D8E0DEBFCDBF25
:100060000E9459000C9494000C94000080E58DB916
:1000700008958FB9779BFECF08958FB9779BFECFF8
:100080008FB10895FC0105C08FB9779BFECF8FB16A
:10009000319680818823C1F70895779BFECF8FB179
:1000A0000895FC01779BFECF8FB181938823D1F710
:1000B0000895CF93DF9387B3836B87BBBE980E946D
:1000C0003600C8ECD0E0C098C19A89E760E00E9491
:1000D000390080E197E2FE013197F1F70197D9F7F6
:1000E0008EE660E00E94390080E197E2FE013197E0
:1000F000F1F70197D9F7C09AC19889E760E00E94AB
:10010000390080E197E2FE013197F1F70197D9F7C5
:100110008EE660E00E94390080E197E2FE013197AF
:0C012000F1F70197D9F7CFCFF894FFCF8B
:00000001FF
